:020000040800F2
:10000000D00A002045010008610B0008BD0A000865
:100010005D0B00089D080008EB1B000800000000B5
:10002000000000000000000000000000B9120008FD
:100030009D0900080000000021100008A513000819
:100040005F0100085F0100085F0100085F01000810
:100050005F0100085F0100085F0100085F01000800
:100060005F0100085F0100085F0100085F010008F0
:100070005F0100085F0100085F0100085F010008E0
:100080005F0100085F0100085F0100085F010008D0
:100090005F0100085F0100085F0100085F010008C0
:1000A0005F0100085F0100085F0100085F010008B0
:1000B0005F0100085F0100085F0100085F010008A0
:1000C0005F0100085F0100085F0100085F01000890
:1000D0005F01000819190008A11900085F01000854
:1000E0005F0100085F0100085F0100085F01000870
:1000F0005F0100085F0100085F0100085F01000860
:100100005F0100085F0100085F0100085F0100084F
:100110005F0100085F0100085F0100085F0100083F
:100120005F0100085F0100085F0100085F0100082F
:10013000DFF80CD000F090FB00480047B11E00082B
:10014000D00A00200648804706480047FEE7FEE741
:10015000FEE7FEE7FEE7FEE7FEE7FEE7FEE7FEE777
:10016000B113000831010008F0B480EA0102D40F95
:100170004200B2EB410F02D20246084611464A0045
:1001800042D0C30DDDB2C1F3C752AD1A202D35DA0E
:10019000C1F3160141F4000204B15242C5F1200638
:1001A00002FA06F12A411044B3EBD05F23D0C4B168
:1001B000012DA0EBC35009DCF0BC4FF0004202EA75
:1001C000C352DBB200F5000000F0BABA400000F103
:1001D000807000EBC350A0F1807040EAD1704900FC
:1001E00009E0490841EAC071A0EBC35000F50000E6
:1001F000400800EBC350F0BC00F099BA6142012204
:1002000002EB4101001BF6E7F0BC704781F00041B2
:10021000AAE780F00040A7E780EA010210B502F0EB
:100220000043400022D04A001FD0010E01EB1261B2
:10023000C0F35600C2F3560240F4000042F400023C
:10024000A0FB022000047F39140400D0401C50EAB7
:10025000124001D44000491EC2B20C0604EBD0107B
:10026000401C4008802A02D003E0002010BD20F08E
:100270000100002900DA0020184310BD30B480EAE4
:10028000010202F0004530F0004221F0004013D09E
:1002900090B1C30DD40DC2F31601C0F31600E41AD9
:1002A00041F4000140F400027D34914201D3641C0A
:1002B00000E04900002C02DA30BC002070474FF407
:1002C00000000023914201D3891A034340084FEAFA
:1002D0004101F7D151B1914202D14FF0004105E007
:1002E00002D24FF0010101E06FF0010103EBC450B5
:1002F000284430BC00F01BBA2DE9FE4F804681EA4D
:100300000300C00F0C46009021F0004123F000458F
:10031000B8EB0200A94105D24046214690461C4652
:100320000B46024623F00040104347D0270DC7F389
:100330000A00C3F30A510290401A019040286BDA78
:10034000C3F3130040F4801B0098924620B10023B1
:10035000D2EB030A63EB0B0B01985946C0F1400244
:10036000504600F0C3F906460D4650465946019ADC
:1003700000F0CBF910EB08006141002487EA11522C
:1003800084EAE7731A4340D0009A62B3019A012AC3
:100390004FEA075215DC001B61EB02014FF00042EF
:1003A00002EA0752CDE90042001C41F580113246B5
:1003B0002B4600F002FA03B0BDE8F08F404621461C
:1003C000F9E7001B61EB0201001C41F580130018E6
:1003D0005B412018A2F5001747EB030140EAD570F6
:1003E000B6196D4111E06D084FEA360645EAC07551
:1003F0004FEA0752001B61EB0201001C41F580111E
:1004000049084FEA30000019514132462B4603B0EB
:10041000BDE8F04F00F0C2B900980122400000236F
:10042000D0EB020263EBE073009821464FEAE074E0
:10043000B8EB000061EB0401E9E783F000435BE700
:1004400081F0004158E72DE9FE4F81EA030404F0F2
:10045000004421F0004100944FF0000B23F00043D2
:1004600050EA01045ED052EA03045BD0C3F30A549D
:10047000C1F30A552C44A4F2F3340194A0FB0254B6
:10048000C1F3130141F48011C3F3130343F4801348
:1004900001FB024400FB034E840A970A44EA81549C
:1004A00047EA8357A4FB076802958D0A05FB078579
:1004B0004FEA932C04FB0C542705029D4FEA065883
:1004C00047EA1637B5EB08056EEB070C870E920E60
:1004D00047EA811742EA8312A7FB0201B6EB0B0140
:1004E00064EB00042B0D43EA0C335E1844EB1C5004
:1004F000DA465146E7FB0201C5F313044FEA0B331A
:1005000043EA14534FEA0432019C43EA0603A4F180
:100510000C040294009CCDE900B400F04EF903B045
:10052000BDE8F08F00200146F9E72DE9F04D81EAA2
:10053000030404F0004B21F0004514464FF0000A7C
:1005400023F0004150EA050220D054EA01021DD0F8
:10055000C5F30A570246C5F31303C1F31300C1F3F1
:100560000A5640F4801543F48013A7EB0608101BCD
:10057000D64608F2FD3873EB050002D308F10108F6
:1005800001E092185B41B8F1000F03DA0020014648
:10059000BDE8F08D00204FF48011064684460EE041
:1005A000171B73EB050705D3121B63EB050306430B
:1005B0004CEA010C49084FEA300092185B4150EABE
:1005C0000107EDD152EA030012D082EA040083EA67
:1005D0000501084305D0101BAB4106D201220023C0
:1005E00006E000224FF0004302E06FF001025310DA
:1005F0001AEB06004CEB085110EB0A0041EB0B0123
:10060000BDE8F04D00F0CAB8C10F80EAE0700844C0
:10061000CA079623002100F093B8962300221146C2
:1006200000F08EB80EB540F2334102910021CDE9C1
:1006300000110A460B4600F0C0F803B000BD20F0E0
:100640000040C10DC0F3160040F400007F2901DA1C
:1006500000207047962903DCC1F19601C84070471D
:1006600096398840704700F0004230F000400AD0D0
:10067000C10D01F56071C0F3160042EA0151C208D4
:1006800040071143704700200146704701F00043C6
:1006900030B421F0004150EA010206D00A0DA2F563
:1006A0006072C1F31301002A02DC30BC00207047E5
:1006B000440F44EAC104C100E01830BC00EBC25052
:1006C00000F035B8002801DBC0F10040002901DB53
:1006D000C1F1004181427047002801DBC0F10040B8
:1006E000002901DBC1F1004188427047202A04DB68
:1006F000203A00FA02F1002070479140C2F1200335
:1007000020FA03F3194390407047202A06DBCB17E9
:10071000203A41FA02F043EAE07306E041FA02F3BC
:10072000D040C2F120029140084319467047002989
:10073000A8BF7047401C490008BF20F00100704767
:1007400010B4B0FA80FC00FA0CF050EA010404BFC7
:1007500010BC704749B1CCF1200421FA04F411FA1D
:100760000CF118BF012121430843A3EB0C01CB1D61
:100770004FEA00614FEA102042BF002010BC7047D2
:1007800000EBC35010440029A4BF10BC7047401CAC
:10079000490008BF20F0010010BC704710B5141EBE
:1007A00073F1000408DA401C41F1000192185B412A
:1007B0001A4301D120F0010010BD2DE9F04D924601
:1007C0009B4611B1B1FA81F202E0B0FA80F2203218
:1007D0009046FFF78BFF04460F4640EA0A0041EAC5
:1007E0000B0153465A46084313D0114653EA010001
:1007F00019D0C8F14002504600F040F805460E46B8
:10080000504659464246FFF771FF084305D0012084
:1008100004E020463946BDE8F08D0020054346EA55
:10082000E0762C4337430A986305E40AA0EB0800FE
:100830000022FD0A44EA47540A3002D5002001464E
:10084000E9E7010510196941DDE908450019694129
:10085000BDE8F04DA2E70000064C074D06E0E06859
:1008600040F0010394E8070098471034AC42F6D3F7
:10087000FFF762FC3421000854210008202A04DB21
:10088000203A21FA02F00021704721FA02F3D04009
:10089000C2F12002914008431946704700BFFEE7AD
:1008A00008B501F0A7FB01F0EBFB0E4800F0EAFAF7
:1008B0000D4908600D4800F081FB0D4908600D48A6
:1008C00000F0E0FA0C49086008460068009008480B
:1008D00003680548094902680948008801F096F94B
:1008E00008BD0000400300205000002070030020DD
:1008F00054000020A0030020580000201402002013
:100900004600002020490A780978491C1E4B1970BE
:100910001E4988540978552903D000211A461170C0
:100920007047194909780B2900DAF9E7174949781E
:10093000512904D052290AD053291ED10FE014495D
:10094000124A921C13680B6052684A6015E0114904
:100950000E4A921C13680B6052684A600DE00E4903
:100960000A4A921C13680B6052684A60098801F5B4
:10097000004109B2084A118000BF00BF0021024AAD
:10098000117000BFCCE700002E00002044020020C0
:1009900000000020080000201000002070472DE912
:1009A000F0410246002500260020002300240027F5
:1009B00091F803C00CF00F0591F803C00CF0100C77
:1009C000BCF1000F03D091F802C04CEA050591F884
:1009D00000C0BCF1000F31D0146800202BE04FF0B4
:1009E000010C0CFA00F3B1F800C00CEA03069E42B9
:1009F00020D183004FF00F0C0CFA03F7BC4305FA2B
:100A000003FC4CEA040491F803C0BCF1280F06D1A2
:100A10004FF0010C0CFA00FCC2F814C00AE091F887
:100A200003C0BCF1480F05D14FF0010C0CFA00FCDB
:100A3000C2F810C0401C0828D1D31460B1F800C01F
:100A4000BCF1FF0F34DD546800202EE000F1080CEB
:100A50004FF0010808FA0CF3B1F800C00CEA0306E5
:100A60009E4221D183004FF00F0C0CFA03F7BC43D8
:100A700005FA03FC4CEA040491F803C0BCF1280F0A
:100A800005D100F1080C08FA0CF8C2F8148091F8AE
:100A900003C0BCF1480F07D100F1080C4FF001086A
:100AA00008FA0CF8C2F81080401C0828CED3546015
:100AB000BDE8F081416170470161704700BFFEE70A
:100AC00010B586B00446012144F2040000F0BAFAE1
:100AD0004FF40070ADF8140018208DF817000320B3
:100AE0008DF8160005A91B48FFF759FF4FF48060E9
:100AF000ADF8140004208DF8170005A91548FFF77C
:100B00004EFF01940020ADF80800ADF80A00ADF8E2
:100B10000C00ADF810000C20ADF80E0001A90E4835
:100B200000F0EEFF002240F227710B4800F0C2FFF8
:100B3000012240F22551084800F0BCFF4021064840
:100B400000F06AFF0121044800F07EFF00F050F938
:100B500006B010BD000801400038014000BFFEE7AC
:100B6000704700001CB511A103C9CDE900010820A0
:100B700000F056FB05226946302000F003F90522FB
:100B80006946102000F0ACF8002406E01DF80400CF
:100B9000A52800D003E0601CC4B2052CF6DB00BF22
:100BA000052C01D001201CBD0020FCE7A5A5A5A5B2
:100BB000A500000000B587B00121182000F042FA1E
:100BC0004FF48050ADF8180010208DF81B00032062
:100BD0008DF81A0006A92748FFF7E1FE4FF480516F
:100BE0002448FFF769FF0620ADF8180006A922483F
:100BF000FFF7D5FE0120ADF8180028208DF81B0066
:100C000006A91D48FFF7CBFE07211B48FFF752FF3F
:100C100000F092FA0021194800F016FB0020ADF810
:100C200004004FF48270ADF806000020ADF8080013
:100C3000ADF80A00ADF80C004FF40070ADF80E00EE
:100C40001820ADF810000020ADF812000720ADF814
:100C5000140001A9094800F011FB0121074800F028
:100C6000F3FA00200649086001200649C1F8840112
:100C700007B000BD000C01400010014000380040EA
:100C8000880122420000224210B50020114908606C
:100C9000052211492A2000F075F80121212000F0D9
:100CA0008FF80121222000F08BF82821252000F068
:100CB00087F82021312000F083F80F21262000F052
:100CC0007FF80F21202000F07BF801200349C1F8B4
:100CD000880110BD880122422D2100080000224217
:100CE0002DE9F04107460D46164600200A490860E6
:100CF000384600F06BFA8046002405E0FF2000F043
:100D000065FA2855601CC4B2B442F7DB01200249E1
:100D100008604046BDE8F0818401224270B5044677
:100D2000002007490860204600F050FAFF2000F03C
:100D30004DFA054601200349C1F88401284670BDDB
:100D4000840122420000224270B50446102000F0C7
:100D500067FA0720FFF7E2FF05462946272000F043
:100D60002FF805F0400050B1202221466120FFF706
:100D7000B7FFFF21E22000F023F8002070BD012022
:100D8000FCE700002DE9F04107460C46154600201F
:100D90000A490860384600F019FA8046002605E046
:100DA00014F8010B00F012FA701CC6B2AE42F7DB69
:100DB0000120024908604046BDE8F08184012242DA
:100DC00070B505460C46002007490860284600F02B
:100DD000FDF90646204600F0F9F901200349C1F863
:100DE0008401304670BD000084012242000022428E
:100DF00008B525208DF8000001208DF8010007209E
:100E00008DF8020001208DF80300684600F002F81A
:100E100008BD000070B5002100230F22C47804B380
:100E2000154C246804F4E064C4F5E064210AC1F1BF
:100E30000403CA40447804FA03F18478144021433F
:100E400009010E4C0678A155047804F01F05012411
:100E5000AC4005786D11AD0005F1E025C5F8004105
:100E600009E0047804F01F050124AC40044D067825
:100E7000761145F8264070BD0CED00E000E400E07E
:100E800080E100E02DE9F84F0446D4E90201FFF7C4
:100E9000BDF9814649462068FFF766F92060206861
:100EA000FFF7E1FB07463E4A3E4BFFF7CCFA05460B
:100EB000FFF7ECFB20603C492068FFF70DFC02D2F5
:100EC0003948206006E039492068FFF7FBFB01D272
:100ED0003648206049462068FFF79EF90546002104
:100EE000FFF7F0FB01D2002020602169606AFFF764
:100EF00093F906462168206AFFF78EF907464946AE
:100F0000E069FFF789F980463946FFF72DF9054674
:100F10003146FFF77BF98246C4F804905046616978
:100F2000FFF77AF900902169FFF770F98046A1690F
:100F3000FFF76CF90746E16AFFF76EF90546504680
:100F40006169FFF769F980462169FFF75FF9074694
:100F5000A16AFFF761F906462946FFF757F983466C
:100F600050466169FFF758F905462169FFF74EF9C8
:100F7000A0610F495046FFF781F982460D4950465E
:100F8000FFF7AAFB01D8DFF82CA00B495046FFF76A
:100F900099FB01D8DFF820A05046BDE8F88F00008B
:100FA000CDCCCCCCCCCCEC3F0000C8420000C8C2B9
:100FB0000000A04000009643000096C32DE9F047D2
:100FC00004462169A068FFF721F9054629462068F3
:100FD000FFF7CAF8206028466168FFF717F98146D5
:100FE000616AFFF719F907462168206AFFF714F9CB
:100FF00081462946E069FFF70FF982464946FFF727
:10100000B3F880463946FFF701F9064665600349A3
:101010003046FFF733F9BDE8F08700000000A0403C
:101020007047000029B1064AD2690243044BDA61D5
:1010300004E0034AD2698243014BDA617047000041
:101040000010024029B1064A92690243044B9A619A
:1010500004E0034A92698243014B9A6170470000A1
:101060000010024030B500210022002400232D4D45
:101070006D6805F00C0121B1042905D0082923D1A0
:1010800005E0294D056022E0274D05601FE0254D54
:101090006D6805F47012234D6D6805F480340225E7
:1010A00005EB92421CB9214D554305600BE01D4DE7
:1010B0006D6805F400351DB11C4D5543056002E017
:1010C000194D5543056002E0174D056000BF00BF94
:1010D000144D6D6805F0F0010909154D6B5C05684C
:1010E000DD4045600F4D6D6805F4E061090A104D63
:1010F0006B5C4568DD4085600A4D6D6805F46051A4
:10110000C90A0B4D6B5C4568DD40C560054D6D68D7
:1011100005F44041890B074D6B5CC568B5FBF3F5E1
:10112000056130BD0010024000127A0000093D0048
:10113000610000207100002000B587B00121082067
:10114000FFF780FF01218803FFF76CFF4FF4604039
:10115000ADF8180018208DF81B0003208DF81A0038
:1011600006A91848FFF71BFC4FF460411548FFF72C
:10117000A3FC0020ADF804004FF48270ADF8060027
:101180000020ADF808000220ADF80A000120ADF8FB
:101190000C004002ADF80E003820ADF81000002021
:1011A000ADF812000720ADF8140001A9064800F0C0
:1011B00065F80121044800F047F8FF2000F006F828
:1011C00007B000BD000C01400038004070B5054676
:1011D000002405E0601CC4B2C82C01DD002070BDF5
:1011E00002210E4800F03CF80028F3D029460B48B5
:1011F00000F042F8002405E0601CC4B2C82C01DDF8
:101200000020ECE70121054800F02AF80028F3D07F
:10121000024800F02EF8C0B2E1E7000000380040BC
:1012200010B50446074800884FF6C77108400549C5
:10123000088008460088204308800121014800F00A
:1012400003F810BD0038004021B1028842F040028E
:10125000028004E002884FF6BF731A400280704794
:101260000246002013890B400BB1012000E0002052
:1012700070470146888970478181704710B5002208
:10128000028802F441520B884C8823438C88234304
:10129000CC8823430C8923434C8923438C892343E3
:1012A000CC8923431A430280838B4FF2FF7423407F
:1012B00083830B8A038210BD704710B500F002F8DB
:1012C00010BD00000CB5002001900090334800686C
:1012D00040F480303149086000BF3048006800F4B5
:1012E000003000900198401C0190009818B90198B6
:1012F000B0F5A06FF1D12948006800F4003010B1BA
:101300000120009001E0002000900098012843D1C6
:101310002348006840F01000214908600846006832
:1013200020F0030008600846006840F002000860F2
:101330001A484068194948600846406848600846AD
:10134000406840F4806048600846406820F47C10A3
:1013500048600846406840F4E81048600846006865
:1013600040F08070086000BF0C48006800F000701A
:101370000028F9D00948406820F003000749486078
:101380000846406840F00200486000BF03484068DB
:1013900000F00C000828F9D10CBD0000001002403C
:1013A0000020024001200149086070471800002019
:1013B00010B51348006840F0010011490860084664
:1013C0004068104908400E494860084600680E49C8
:1013D00008400B4908600846006820F48020086037
:1013E0000846406820F4FE0048604FF41F00886003
:1013F000FFF763FF4FF000600449086010BD000074
:10140000001002400000FFF8FFFFF6FE08ED00E0CC
:1014100030B589B004460D4601210846FFF702FEAB
:1014200001210420FFF70EFE0C20ADF8200018204B
:101430008DF8230003208DF8220008A91B48FFF730
:10144000AEFAA8B2ADF814000020ADF81600A0B2B4
:10145000ADF818000020ADF81A0005A94FF0804043
:1014600000F008FA7020ADF804000120ADF8060085
:101470000220ADF80C0001A9400700F055F901A9C0
:101480004FF0804000F0AAF90821C80600F09CF94E
:101490000821C80600F0E0F90121880700F076F87D
:1014A0000121880700F07EF809B030BD0008014036
:1014B00030B589B004460D4601210220FFF7B2FD88
:1014C00001210420FFF7BEFD01210820FFF7BAFD2E
:1014D000C020ADF8200018208DF8230003208DF8DF
:1014E000220008A92648FFF75AFA0320ADF8200089
:1014F00008A92448FFF753FAA8B2ADF81400002059
:10150000ADF81600A0B2ADF818000020ADF81A0032
:1015100005A91D4800F0AEF97020ADF804000120C7
:10152000ADF806000220ADF80C0001A9164800F045
:1015300045F801A9144800F097F801A9124800F0F5
:10154000F3F801A9104800F049F908210E4800F00D
:1015500081F808210C4800F0D9F808210A4800F069
:1015600033F90821084800F077F90121064800F016
:101570000DF80121044800F015F809B030BD000055
:1015800000080140000C01400004004021B1028825
:1015900042F08002028004E002884FF67F731A4016
:1015A0000280704721B1028842F00102028004E00B
:1015B00002884FF6FE731A400280704770B500240F
:1015C00000220023058C4FF6FE7635400584028C00
:1015D0008388048B4FF68F752C40B51E2C400D88E8
:1015E0002C43751E2A400D892A434D882A43144DE9
:1015F000A8420BD0134DA84208D0134DA84205D0E5
:10160000124DA84202D0124DA84213D14FF6F775E1
:101610002A404D892A434FF6FB752A408D882A437C
:101620004FF6FF652B404FF6FF552B408D892B431E
:10163000CD892B4383800483CD888586028470BD49
:10164000002C0140003401400040014000440140B2
:10165000004801400A460021018B4FF6F7731940FC
:10166000114301837047000070B50024002200235D
:10167000058C4FF6EF7635400584028C8388048B09
:1016800048F6FF752C404FF6FF452C400D884FF66D
:10169000FF7606EA05252C434FF6DF752A400D89B3
:1016A00006EA05152A434D8806EA05152A43154D15
:1016B000A84202D0144DA8421DD14FF67F752A4092
:1016C0004D894FF6FF7606EA05152A434FF6BF759A
:1016D0002A408D8806EA05152A434FF6FF352B4030
:1016E0004FF2FF752B408D8906EA85052B43CD8986
:1016F00006EA85052B4383800483CD880587028411
:1017000070BD0000002C0140003401400A46002159
:10171000018B4FF2FF7319404FF6FF7303EA022368
:10172000194301837047000070B500240022002394
:10173000058C4FF6FF6635400584028C8388848BC8
:101740004FF68F752C404FF6FC752C400D882C43BE
:101750004FF6FF552A400D894FF6FF7606EA05251C
:101760002A434D8806EA05252A43154DA84202D092
:10177000144DA8421DD14FF2FF752A404D894FF6F6
:10178000FF7606EA05252A434FF6FF352A408D8865
:1017900006EA05252A434EF6FF752B404DF6FF75E8
:1017A0002B408D8906EA05152B43CD8906EA0515E0
:1017B0002B4383808483CD888587028470BD00009D
:1017C000002C0140003401400A460021818B4FF675
:1017D000F7731940114381837047000070B50022F0
:1017E00000230024058C4EF6FF7635400584038CDB
:1017F0008488828B48F6FF752A404FF6FF452A40C1
:101800000D884FF6FF7606EA05252A434DF6FF754B
:101810002B400D8906EA05352B434D8806EA053530
:101820002B430B4DA84202D00A4DA84208D14BF6DB
:10183000FF752C408D894FF6FF7606EA85152C43FF
:1018400084808283CD88A0F84050038470BD00005E
:10185000002C0140003401400A460021818B4FF2E8
:10186000FF7319404FF6FF7303EA02231943818384
:1018700070470000002202881D4B98420ED01D4B7D
:1018800098420BD0B0F1804F08D01B4B984205D046
:101890001A4B984202D01A4B984204D14FF68F73DC
:1018A0001A404B881A43174B984207D0164B984260
:1018B00004D04FF6FF431A40CB881A4302808B882E
:1018C00083850B8803850A4B98420BD0094B9842BD
:1018D00008D00E4B984205D00D4B984202D00D4BCC
:1018E000984201D10B7A038601238382704700005E
:1018F000002C01400034014000040040000800407A
:10190000000C004000100040001400400040014066
:10191000004401400048014010B540F227711C48C6
:1019200000F09EF8E0B11B4802780078401C194B8B
:1019300018701948815C164800F053F91548007872
:1019400016490978884205D1002240F227711048D3
:1019500000F0B0F840F227710D4800F066F810E092
:1019600040F225510A4800F07BF850B10849091DA2
:101970000988C8B2FEF7C6FF40F22551044800F0BE
:1019800054F84FF45871024800F04FF810BD0000B1
:10199000003801405C000020D00300205D000020E2
:1019A00010B540F22771184800F05AF8E0B1174816
:1019B00002780078401C154B18701548815C12485D
:1019C00000F00FF940F227710F4800F02EF80F4891
:1019D000007810490978884215D1002240F2277119
:1019E000094800F067F80EE040F22551064800F083
:1019F00037F840B1044800F0EFF8C4B240F2255186
:101A0000014800F012F810BD004400405E000020C4
:101A1000CA0500205F00002001F40072B2F5007FCB
:101A200000D100BFCA430280704710B500220023D6
:101A300040F66A14A14200D100BF0A12012494406A
:101A4000A3B2DC43048010BD21B1828942F400526C
:101A5000828104E082894DF6FF731A4082817047CB
:101A600070B50246002400230025002040F66A16C7
:101A7000B14200D100BFC1F3421501F01F0301269E
:101A800006FA03F3012D02D19689334006E0022DB8
:101A900002D1168A334001E0968A33400C120126A7
:101AA00006FA04F41688344013B10CB1012000E0AA
:101AB000002070BDF0B5034600240026002500205C
:101AC00040F66A17B94200D100BF1846C1F342146C
:101AD00001F01F06012707FA06F5012C01D10C3091
:101AE00004E0022C01D1103000E014301AB1076874
:101AF0002F43076002E00768AF430760F0BD0000B6
:101B00002DE9F04786B005460E460024A24600BFE8
:101B1000A1460027B08900B100BF2F462C8A4CF6A1
:101B2000FF700440F08804432C82AC894EF6F31019
:101B30000440B08831890843718908430443AC816B
:101B4000AC8A4FF6FF400440B0890443AC8201A840
:101B5000FFF788FA1F48874202D1DDF810A001E0A4
:101B6000DDF80CA0A88900F4004040B10AEBCA00DF
:101B700000EB0A1031684900B0FBF1F807E00AEB0E
:101B8000CA0000EB0A1031688900B0FBF1F864204C
:101B9000B8FBF0F004012009642101FB1089A88939
:101BA00000F4004040B1322000EBC900B0FBF1F07E
:101BB00000F00700044308E0322000EB0910642124
:101BC000B0FBF1F000F00F0004432C8106B0BDE83B
:101BD000F08700000038014001468888C0F3080003
:101BE0007047C1F308028280704700BFFEE702E041
:101BF00008C8121F08C1002AFAD170477047002098
:101C000001E001C1121F002AFBD170472DE9F04FFE
:101C10008DB083460C4691469A465046FEF723FD0A
:101C2000CDE908014846FEF71EFDCDE906011698EC
:101C3000FEF719FDCDE904015846FEF7F3FC6F4AA3
:101C40006F4BCDE90001FEF770FCCDE90201DDE943
:101C50000423FEF751FB0746DDE90623FEF7EDFB03
:101C60000546DDE90823FEF7E8FBCDE90A01FEF7AA
:101C70000DFD20605046FEF7F6FCCDE90801484610
:101C8000FEF7F1FCCDE906011698FEF7ECFCCDE974
:101C900004015846FEF7C6FC584A594BCDE90001ED
:101CA000FEF743FCCDE90201DDE90423FEF7C5FBA5
:101CB0000746DDE90623FEF7C0FB0546DDE90823FC
:101CC000FEF71AFBCDE90A01FEF7E0FC6060504622
:101CD000FEF7C9FC05460E464846FEF7C4FCCDE9B2
:101CE00008011698FEF7BFFCCDE904015846FEF73F
:101CF00099FC424A424BCDE90001FEF716FCCDE9C2
:101D00000201DDE90423FEF798FBCDE90601DDE9D8
:101D10000823FEF7F1FA2A463346CDE90A01FEF719
:101D20008CFB0746FEF7B2FCA0605046FEF79BFC1A
:101D3000CDE908014846FEF796FC05460E46169882
:101D4000FEF791FCCDE904015846FEF76BFC2B4AE7
:101D50002B4BCDE90001FEF7E8FBCDE90201DDE9FF
:101D60000423FEF7C9FA07462A463346FEF7C4FAAB
:101D7000CDE90601DDE90823FEF7BEFACDE90A0147
:101D8000FEF784FCE0601F492068FEF7A5FC01D245
:101D90001C4820601B496068FEF79EFC01D2194870
:101DA00060601849A068FEF797FC01D21548A06052
:101DB0001449E068FEF790FC01D21248E06000216F
:101DC0002068FEF77FFC01D20020206000216068BF
:101DD000FEF778FC01D2002060600021A068FEF7C9
:101DE00071FC01D20020A0600021E068FEF76AFCCF
:101DF00001D20020E0600DB0BDE8F08F7B14AE474B
:101E0000E17A144000C0794402460020054B5B5C37
:101E100018434FF6FF7303EA0020024B9B5C184304
:101E200070470000240200200020184948608861A3
:101E300008601749486088610860164948608861F1
:101E400008604FF07E50114948611348C861002076
:101E5000086212484862124888621248C8624FF00D
:101E60007E500C4948610C48C861002008620E4849
:101E700048620B4888620B48C8620C480449C86134
:101E8000002008624FF07E504862704740030020F7
:101E900070030020A0030020022B873D46B6733E4E
:101EA0006666663FCDCCCC3D46B673BE0000204191
:101EB000FFF7BAFF45480068454AB0FBF2F1B1F1BF
:101EC000807F00D31DE021F07F40401E4FF0E022D4
:101ED000506150170F22002807DA13071D0E3D4BE3
:101EE00000F00F04241F1D5503E013071C0E3A4B8E
:101EF0001C5400BF00204FF0E022906107201061C9
:101F000000BF482140F2E730FFF782FA482140F253
:101F1000E730FFF7CDFA4FF4E130FEF7D1FDFEF7E1
:101F200049FE00BFFEF71EFE0028FBD1FEF7ACFE07
:101F30004AE02A480068002846D0FEF7B1FC28484D
:101F4000007D2849087008460078FEF766FB0546C4
:101F5000254801682846FEF75FF90446FEF76FFB47
:101F6000224908801F480078FEF757FB05461E48A7
:101F700041682846FEF750F90446FEF760FB1C490D
:101F8000088018480078FEF748FB05461648816827
:101F90002846FEF741F90446FEF751FB13490C3978
:101FA000088010480078FEF738FB05460E48C168E7
:101FB0002846FEF731F90446FEF741FB0B49091F9D
:101FC0000880002005490860B3E7000030000020C9
:101FD000A086010018ED00E000E400E018000020F9
:101FE000240200202C0000201402002040040040A5
:101FF0004000004010B51B48FEF7A6FE60B11A482D
:102000000088C82803DB00201649087510BD164853
:102010000088401C144908800020134908800121D1
:10202000FFF7F2FE1149088003210220FFF7ECFEC2
:102030000F49088005210420FFF7E6FE0D490880BE
:1020400007210620FFF7E0FE0B49088008480088BA
:10205000C0F58050064908800248007D0749087095
:1020600000BFD3E7240200204E00002044000020DF
:1020700046000020480000204A0000204C000020BC
:1020800010B521490988A1F50060FEF7BDFA1F4986
:1020900088601F490988A1F63900FEF7B5FA1D4985
:1020A00088601D490988A1F50060FEF7ADFA1B495B
:1020B00088601B49B1F90000FEF7A6FA1349C86011
:1020C0001749B1F90400FEF79FFA1249C860144994
:1020D000B1F90200FEF798FA1049C8601149B1F948
:1020E0000000FEF791FA094908610E49B1F90400B0
:1020F000FEF78AFA074908610A49B1F90200FEF7BA
:1021000083FA0649086110BD4A0000204003002000
:10211000440000207003002048000020A00300209D
:102120001000002008000020344310100134431038
:102130001001000054210008000000207800000079
:10214000EE1B0008CC21000878000020580A00008F
:10215000FE1B00080000000000000000000000005E
:10216000000000000000000000000000000000006F
:10217000000000000000000000000000000000005F
:102180000000000000A24A0400000000000000005F
:102190000102030406070809000000000000000017
:1021A000000000000000000000000000000000002F
:1021B000000000000000000000010203040102030F
:0C21C000040607080902040608000000DD
:0400000508000145A9
:00000001FF
