:020000040800F2
:10000000E808002045010008ED0300084903000846
:10001000E90300088D0100087312000800000000C9
:10002000000000000000000000000000410900087E
:100030002902000800000000A90600082D0A000897
:100040005F0100085F0100085F0100085F01000810
:100050005F0100085F0100085F0100085F01000800
:100060005F0100085F0100085F0100085F010008F0
:100070005F0100085F0100085F0100085F010008E0
:100080005F0100085F0100085F0100085F010008D0
:100090005F0100085F0100085F0100085F010008C0
:1000A0005F0100085F0100085F0100085F010008B0
:1000B0005F0100085F0100085F0100085F010008A0
:1000C0005F0100085F0100085F0100085F01000890
:1000D0005F010008A10F0008291000085F01000857
:1000E0005F0100085F0100085F0100085F01000870
:1000F0005F0100085F0100085F0100085F01000860
:100100005F0100085F0100085F0100085F0100084F
:100110005F0100085F0100085F0100085F0100083F
:100120005F0100085F0100085F0100085F0100082F
:10013000DFF80CD000F018F80048004795120008CE
:10014000E80800200648804706480047FEE7FEE72B
:10015000FEE7FEE7FEE7FEE7FEE7FEE7FEE7FEE777
:10016000390A000831010008064C074D06E0E06836
:1001700040F0010394E8070098471034AC42F6D3EE
:10018000FFF7DAFF301300085013000800BFFEE746
:1001900020490A780978491C1E4B19701E49885459
:1001A0000978552903D000211A4611707047194962
:1001B00009780B2900DAF9E717494978512904D061
:1001C00052290AD053291ED10FE01449124A921C19
:1001D00013680B6052684A6015E011490E4A921C80
:1001E00013680B6052684A600DE00E490A4A921C7F
:1001F00013680B6052684A60098801F5004109B232
:10020000084A118000BF00BF0021024A117000BFE0
:10021000CCE700002C000020F000002000000020AF
:10022000080000201000002070472DE9F041024630
:1002300000250026002000230024002791F803C099
:100240000CF00F0591F803C00CF0100CBCF1000F7E
:1002500003D091F802C04CEA050591F800C0BCF14A
:10026000000F31D0146800202BE04FF0010C0CFA85
:1002700000F3B1F800C00CEA03069E4220D18300CF
:100280004FF00F0C0CFA03F7BC4305FA03FC4CEAE1
:10029000040491F803C0BCF1280F06D14FF0010C03
:1002A0000CFA00FCC2F814C00AE091F803C0BCF1DB
:1002B000480F05D14FF0010C0CFA00FCC2F810C039
:1002C000401C0828D1D31460B1F800C0BCF1FF0F66
:1002D00034DD546800202EE000F1080C4FF00108D6
:1002E00008FA0CF3B1F800C00CEA03069E4221D1D3
:1002F00083004FF00F0C0CFA03F7BC4305FA03FC24
:100300004CEA040491F803C0BCF1280F05D100F1B8
:10031000080C08FA0CF8C2F8148091F803C0BCF17C
:10032000480F07D100F1080C4FF0010808FA0CF84B
:10033000C2F81080401C0828CED35460BDE8F0817C
:10034000416170470161704700BFFEE710B586B09C
:100350000446012144F2040000F0B8F94FF40070A3
:10036000ADF8140018208DF8170003208DF8160042
:1003700005A91B48FFF759FF4FF48060ADF8140042
:1003800004208DF8170005A91548FFF74EFF0194CA
:100390000020ADF80800ADF80A00ADF80C00ADF88B
:1003A00010000C20ADF80E0001A90E4800F0ECFE84
:1003B000002240F227710B4800F0C0FE012240F2FB
:1003C0002551084800F0BAFE4021064800F068FEBA
:1003D0000121044800F07CFE00F01CF906B010BDBD
:1003E000000801400038014000BFFEE770470000F0
:1003F0001CB511A103C9CDE90001082000F054FA91
:1004000005226946302000F0CFF805226946102009
:1004100000F0ACF8002406E01DF80400A52800D088
:1004200003E0601CC4B2052CF6DB00BF052C01D034
:1004300001201CBD0020FCE7A5A5A5A5A500000086
:1004400000B587B00121182000F040F94FF480502A
:10045000ADF8180010208DF81B0003208DF81A004D
:1004600006A92748FFF7E1FE4FF480512448FFF723
:1004700069FF0620ADF8180006A92248FFF7D5FE4F
:100480000120ADF8180028208DF81B0006A91D4892
:10049000FFF7CBFE07211B48FFF752FF00F090F952
:1004A0000021194800F014FA0020ADF804004FF4C0
:1004B0008270ADF806000020ADF80800ADF80A0023
:1004C000ADF80C004FF40070ADF80E001820ADF838
:1004D00010000020ADF812000720ADF8140001A9AB
:1004E000094800F00FFA0121074800F0F1F9002057
:1004F0000649086001200649C1F8840107B000BD23
:10050000000C0140001001400038004088012242E8
:100510000000224210B5002011490860052211494F
:100520002A2000F041F80121212000F05BF8012190
:10053000222000F057F82821252000F053F8202130
:10054000312000F04FF80F21262000F04BF80F214A
:10055000202000F047F801200349C1F8880110BDB0
:100560008801224229130008000022422DE9F041AF
:1005700007460D46164600200A490860384600F036
:1005800069F98046002405E0FF2000F063F9285552
:10059000601CC4B2B442F7DB012002490860404647
:1005A000BDE8F081840122422DE9F04107460C4666
:1005B000154600200A490860384600F04BF980468D
:1005C000002605E014F8010B00F044F9701CC6B2D7
:1005D000AE42F7DB0120024908604046BDE8F081E9
:1005E0008401224270B505460C4600200749086088
:1005F000284600F02FF90646204600F02BF901208E
:100600000349C1F88401304670BD000084012242D4
:100610000000224208B525208DF8000001208DF849
:10062000010007208DF8020001208DF803006846C4
:1006300000F002F808BD000070B5002100230F2271
:10064000C47804B3154C246804F4E064C4F5E06491
:10065000210AC1F10403CA40447804FA03F1847802
:100660001440214309010E4C0678A155047804F08A
:100670001F050124AC4005786D11AD0005F1E025A2
:10068000C5F8004109E0047804F01F050124AC40DE
:10069000044D0678761145F8264070BD0CED00E05B
:1006A00000E400E080E100E07047000029B1064A64
:1006B000D2690243044BDA6104E0034AD2698243FF
:1006C000014BDA61704700000010024029B1064A70
:1006D00092690243044B9A6104E0034A926982439F
:1006E000014B9A61704700000010024030B50021B4
:1006F0000022002400232D4D6D6805F00C0121B16E
:10070000042905D0082923D105E0294D056022E000
:10071000274D05601FE0254D6D6805F47012234DCF
:100720006D6805F48034022505EB92421CB9214D19
:10073000554305600BE01D4D6D6805F400351DB196
:100740001C4D5543056002E0194D5543056002E01C
:10075000174D056000BF00BF144D6D6805F0F00136
:100760000909154D6B5C0568DD4045600F4D6D68EE
:1007700005F4E061090A104D6B5C4568DD40856059
:100780000A4D6D6805F46051C90A0B4D6B5C4568F4
:10079000DD40C560054D6D6805F44041890B074D8E
:1007A0006B5CC568B5FBF3F5056130BD0010024018
:1007B00000127A0000093D00490000205900002085
:1007C00000B587B001210820FFF780FF01218803D1
:1007D000FFF76CFF4FF46040ADF8180018208DF85B
:1007E0001B0003208DF81A0006A91848FFF71DFD0D
:1007F0004FF460411548FFF7A5FD0020ADF8040057
:100800004FF48270ADF806000020ADF80800022019
:10081000ADF80A000120ADF80C004002ADF80E0062
:100820003820ADF810000020ADF812000720ADF818
:10083000140001A9064800F065F80121044800F001
:1008400047F8FF2000F006F807B000BD000C01409B
:100850000038004070B50546002405E0601CC4B2B5
:10086000C82C01DD002070BD02210E4800F03CF8CC
:100870000028F3D029460B4800F042F8002405E098
:10088000601CC4B2C82C01DD0020ECE70121054842
:1008900000F02AF80028F3D0024800F02EF8C0B289
:1008A000E1E700000038004010B504460748008822
:1008B0004FF6C77108400549088008460088204364
:1008C00008800121014800F003F810BD0038004005
:1008D00021B1028842F04002028004E002884FF613
:1008E000BF731A40028070470246002013890B40F4
:1008F0000BB1012000E00020704701468889704755
:100900008181704710B50022028802F441520B88A1
:100910004C8823438C882343CC8823430C8923436E
:100920004C8923438C892343CC8923431A43028077
:10093000838B4FF2FF74234083830B8A038210BDA5
:10094000704710B500F002F810BD00000CB5002093
:10095000019000903348006840F4803031490860CD
:1009600000BF3048006800F4003000900198401C3F
:100970000190009818B90198B0F5A06FF1D12948FD
:10098000006800F4003010B10120009001E0002068
:1009900000900098012843D12348006840F01000DF
:1009A000214908600846006820F0030008600846F6
:1009B000006840F0020008601A4840681949486021
:1009C0000846406848600846406840F480604860D7
:1009D0000846406820F47C1048600846406840F4AF
:1009E000E81048600846006840F08070086000BF6A
:1009F0000C48006800F000700028F9D009484068F1
:100A000020F00300074948600846406840F00200B3
:100A1000486000BF0348406800F00C000828F9D186
:100A20000CBD0000001002400020024001200149DE
:100A3000086070471800002010B51348006840F0A7
:100A400001001149086008464068104908400E49F5
:100A50004860084600680E4908400B49086008468F
:100A6000006820F4802008600846406820F4FE00FA
:100A700048604FF41F008860FFF763FF4FF000608D
:100A80000449086010BD0000001002400000FFF89B
:100A9000FFFFF6FE08ED00E030B589B004460D46D4
:100AA00001210846FFF702FE01210420FFF70EFE98
:100AB0000C20ADF8200018208DF8230003208DF8BD
:100AC000220008A91B48FFF7B0FBA8B2ADF814003C
:100AD0000020ADF81600A0B2ADF818000020ADF867
:100AE0001A0005A94FF0804000F008FA7020ADF818
:100AF00004000120ADF806000220ADF80C0001A9A9
:100B0000400700F055F901A94FF0804000F0AAF924
:100B10000821C80600F09CF90821C80600F0E0F999
:100B20000121880700F076F80121880700F07EF89F
:100B300009B030BD0008014030B589B004460D460B
:100B400001210220FFF7B2FD01210420FFF7BEFDC5
:100B500001210820FFF7BAFDC020ADF820001820C1
:100B60008DF8230003208DF8220008A92648FFF7FE
:100B70005CFB0320ADF8200008A92448FFF755FBD3
:100B8000A8B2ADF814000020ADF81600A0B2ADF880
:100B900018000020ADF81A0005A91D4800F0AEF9B4
:100BA0007020ADF804000120ADF806000220ADF879
:100BB0000C0001A9164800F045F801A9144800F0FE
:100BC00097F801A9124800F0F3F801A9104800F0C5
:100BD00049F908210E4800F081F808210C4800F07E
:100BE000D9F808210A4800F033F90821084800F034
:100BF00077F90121064800F00DF80121044800F0C2
:100C000015F809B030BD000000080140000C01409B
:100C10000004004021B1028842F08002028004E01A
:100C200002884FF67F731A400280704721B1028814
:100C300042F00102028004E002884FF6FE731A407F
:100C40000280704770B5002400220023058C4FF607
:100C5000FE7635400584028C8388048B4FF68F75B1
:100C60002C40B51E2C400D882C43751E2A400D8942
:100C70002A434D882A43144DA8420BD0134DA84255
:100C800008D0134DA84205D0124DA84202D0124DF3
:100C9000A84213D14FF6F7752A404D892A434FF6E3
:100CA000FB752A408D882A434FF6FF652B404FF68F
:100CB000FF552B408D892B43CD892B4383800483A3
:100CC000CD888586028470BD002C0140003401402F
:100CD0000040014000440140004801400A46002114
:100CE000018B4FF6F77319401143018370470000E1
:100CF00070B5002400220023058C4FF6EF763540B6
:100D00000584028C8388048B48F6FF752C404FF6CF
:100D1000FF452C400D884FF6FF7606EA05252C434B
:100D20004FF6DF752A400D8906EA05152A434D88DE
:100D300006EA05152A43154DA84202D0144DA842D3
:100D40001DD14FF67F752A404D894FF6FF7606EA92
:100D500005152A434FF6BF752A408D8806EA05150A
:100D60002A434FF6FF352B404FF2FF752B408D89FC
:100D700006EA85052B43CD8906EA85052B4383804A
:100D80000483CD880587028470BD0000002C0140DB
:100D9000003401400A460021018B4FF2FF731940D5
:100DA0004FF6FF7303EA02231943018370470000E3
:100DB00070B5002400220023058C4FF6FF663540F5
:100DC0000584028C8388848B4FF68F752C404FF6F8
:100DD000FC752C400D882C434FF6FF552A400D8999
:100DE0004FF6FF7606EA05252A434D8806EA0525D3
:100DF0002A43154DA84202D0144DA8421DD14FF2EE
:100E0000FF752A404D894FF6FF7606EA05252A43ED
:100E10004FF6FF352A408D8806EA05252A434EF60F
:100E2000FF752B404DF6FF752B408D8906EA0515A1
:100E30002B43CD8906EA05152B4383808483CD8817
:100E40008587028470BD0000002C01400034014001
:100E50000A460021818B4FF6F773194011438183B5
:100E60007047000070B5002200230024058C4EF668
:100E7000FF7635400584038C8488828B48F6FF75A5
:100E80002A404FF6FF452A400D884FF6FF7606EAC6
:100E900005252A434DF6FF752B400D8906EA0535D9
:100EA0002B434D8806EA05352B430B4DA84202D053
:100EB0000A4DA84208D14BF6FF752C408D894FF69C
:100EC000FF7606EA85152C4384808283CD88A0F8BE
:100ED0004050038470BD0000002C014000340140EC
:100EE0000A460021818B4FF2FF7319404FF6FF73C2
:100EF00003EA02231943818370470000002202881D
:100F00001D4B98420ED01D4B98420BD0B0F1804F34
:100F100008D01B4B984205D01A4B984202D01A4B6E
:100F2000984204D14FF68F731A404B881A43174BDF
:100F3000984207D0164B984204D04FF6FF431A4010
:100F4000CB881A4302808B8883850B8803850A4BE4
:100F500098420BD0094B984208D00E4B984205D0CE
:100F60000D4B984202D00D4B984201D10B7A03866B
:100F70000123838270470000002C014000340140AF
:100F80000004004000080040000C00400010004039
:100F9000001400400040014000440140004801406E
:100FA00010B540F227711C4800F09EF8E0B11B48D4
:100FB00002780078401C194B18701948815C16485B
:100FC00000F053F91548007816490978884205D190
:100FD000002240F22771104800F0B0F840F227716B
:100FE0000D4800F066F810E040F225510A4800F084
:100FF0007BF850B10849091D0988C8B2FFF7C8F845
:1010000040F22551044800F054F84FF4587102485A
:1010100000F04FF810BD00000038014044000020EF
:10102000EA0100204500002010B540F22771184861
:1010300000F05AF8E0B1174802780078401C154BD0
:1010400018701548815C124800F00FF940F22771C2
:101050000F4800F02EF80F480078104909788842B0
:1010600015D1002240F22771094800F067F80EE020
:1010700040F22551064800F037F840B1044800F02E
:10108000EFF8C4B240F22551014800F012F810BD4B
:101090000044004046000020E403002047000020F8
:1010A00001F40072B2F5007F00D100BFCA43028094
:1010B000704710B50022002340F66A14A14200D107
:1010C00000BF0A1201249440A3B2DC43048010BD87
:1010D00021B1828942F40052828104E082894DF676
:1010E000FF731A408281704770B5024600240023C6
:1010F0000025002040F66A16B14200D100BFC1F3BE
:10110000421501F01F03012606FA03F3012D02D157
:101110009689334006E0022D02D1168A334001E061
:10112000968A33400C12012606FA04F416883440DD
:1011300013B10CB1012000E0002070BDF0B50346F2
:10114000002400260025002040F66A17B94200D18D
:1011500000BF1846C1F3421401F01F06012707FA29
:1011600006F5012C01D10C3004E0022C01D1103025
:1011700000E014301AB107682F43076002E00768E7
:10118000AF430760F0BD00002DE9F04786B005468B
:101190000E460024A24600BFA1460027B08900B138
:1011A00000BF2F462C8A4CF6FF700440F0880443A1
:1011B0002C82AC894EF6F3100440B0883189084384
:1011C000718908430443AC81AC8A4FF6FF40044068
:1011D000B0890443AC8201A8FFF788FA1F48874210
:1011E00002D1DDF810A001E0DDF80CA0A88900F420
:1011F000004040B10AEBCA0000EB0A103168490018
:10120000B0FBF1F807E00AEBCA0000EB0A10316806
:101210008900B0FBF1F86420B8FBF0F0040120096C
:10122000642101FB1089A88900F4004040B13220FC
:1012300000EBC900B0FBF1F000F00700044308E048
:10124000322000EB09106421B0FBF1F000F00F0038
:1012500004432C8106B0BDE8F0870000003801404F
:1012600001468888C0F308007047C1F308028280F5
:10127000704700BFFEE702E008C8121F08C1002A3D
:10128000FAD170477047002001E001C1121F002A07
:10129000FBD170471F4800681F4AB0FBF2F1B1F163
:1012A000807F00D31DE021F07F40401E4FF0E02200
:1012B000506150170F22002807DA13071D0E174B35
:1012C00000F00F04241F1D5503E013071C0E144BE0
:1012D0001C5400BF00204FF0E022906107201061F5
:1012E00000BF482140F2E730FFF7D6FB482140F22B
:1012F000E730FFF721FC4FF41650FFF727F8FFF710
:101300009FF800BFFFF774F80028FBD1FFF702F940
:1013100000BFFEE730000020A086010018ED00E0CD
:1013200000E400E0344310100134431010010000C9
:101330005013000800000020600000007612000832
:10134000B013000860000020880800008612000822
:10135000000000000000000000000000000000008D
:10136000000000000000000000000000000000007D
:10137000000000000000000000000000000000006D
:1013800000A24A0400000000000000000102030463
:101390000607080900000000000000000001020329
:1013A00004010203040607080902040608000000FD
:0400000508000145A9
:00000001FF
